{
  "address": "0x508fDf90951c1a31FAA5dCd119f3b60E0e0E87fB",
  "abi": [
    {
      "inputs": [
        {
          "components": [
            {
              "internalType": "address",
              "name": "permit2",
              "type": "address"
            },
            {
              "internalType": "address",
              "name": "weth9",
              "type": "address"
            },
            {
              "internalType": "address",
              "name": "seaport",
              "type": "address"
            },
            {
              "internalType": "address",
              "name": "seaportV1_4",
              "type": "address"
            },
            {
              "internalType": "address",
              "name": "openseaConduit",
              "type": "address"
            },
            {
              "internalType": "address",
              "name": "nftxZap",
              "type": "address"
            },
            {
              "internalType": "address",
              "name": "x2y2",
              "type": "address"
            },
            {
              "internalType": "address",
              "name": "foundation",
              "type": "address"
            },
            {
              "internalType": "address",
              "name": "sudoswap",
              "type": "address"
            },
            {
              "internalType": "address",
              "name": "elementMarket",
              "type": "address"
            },
            {
              "internalType": "address",
              "name": "nft20Zap",
              "type": "address"
            },
            {
              "internalType": "address",
              "name": "cryptopunks",
              "type": "address"
            },
            {
              "internalType": "address",
              "name": "looksRare",
              "type": "address"
            },
            {
              "internalType": "address",
              "name": "routerRewardsDistributor",
              "type": "address"
            },
            {
              "internalType": "address",
              "name": "looksRareRewardsDistributor",
              "type": "address"
            },
            {
              "internalType": "address",
              "name": "looksRareToken",
              "type": "address"
            },
            {
              "internalType": "address",
              "name": "v2Factory",
              "type": "address"
            },
            {
              "internalType": "address",
              "name": "v3Factory",
              "type": "address"
            },
            {
              "internalType": "bytes32",
              "name": "pairInitCodeHash",
              "type": "bytes32"
            },
            {
              "internalType": "bytes32",
              "name": "poolInitCodeHash",
              "type": "bytes32"
            }
          ],
          "internalType": "struct RouterParameters",
          "name": "params",
          "type": "tuple"
        }
      ],
      "stateMutability": "nonpayable",
      "type": "constructor"
    },
    {
      "inputs": [],
      "name": "BalanceTooLow",
      "type": "error"
    },
    {
      "inputs": [],
      "name": "BuyPunkFailed",
      "type": "error"
    },
    {
      "inputs": [],
      "name": "ContractLocked",
      "type": "error"
    },
    {
      "inputs": [],
      "name": "ETHNotAccepted",
      "type": "error"
    },
    {
      "inputs": [
        {
          "internalType": "uint256",
          "name": "commandIndex",
          "type": "uint256"
        },
        {
          "internalType": "bytes",
          "name": "message",
          "type": "bytes"
        }
      ],
      "name": "ExecutionFailed",
      "type": "error"
    },
    {
      "inputs": [],
      "name": "FromAddressIsNotOwner",
      "type": "error"
    },
    {
      "inputs": [],
      "name": "InsufficientETH",
      "type": "error"
    },
    {
      "inputs": [],
      "name": "InsufficientToken",
      "type": "error"
    },
    {
      "inputs": [],
      "name": "InvalidBips",
      "type": "error"
    },
    {
      "inputs": [
        {
          "internalType": "uint256",
          "name": "commandType",
          "type": "uint256"
        }
      ],
      "name": "InvalidCommandType",
      "type": "error"
    },
    {
      "inputs": [],
      "name": "InvalidOwnerERC1155",
      "type": "error"
    },
    {
      "inputs": [],
      "name": "InvalidOwnerERC721",
      "type": "error"
    },
    {
      "inputs": [],
      "name": "InvalidPath",
      "type": "error"
    },
    {
      "inputs": [],
      "name": "InvalidReserves",
      "type": "error"
    },
    {
      "inputs": [],
      "name": "InvalidSpender",
      "type": "error"
    },
    {
      "inputs": [],
      "name": "LengthMismatch",
      "type": "error"
    },
    {
      "inputs": [],
      "name": "SliceOutOfBounds",
      "type": "error"
    },
    {
      "inputs": [],
      "name": "TransactionDeadlinePassed",
      "type": "error"
    },
    {
      "inputs": [],
      "name": "UnableToClaim",
      "type": "error"
    },
    {
      "inputs": [],
      "name": "UnsafeCast",
      "type": "error"
    },
    {
      "inputs": [],
      "name": "V2InvalidPath",
      "type": "error"
    },
    {
      "inputs": [],
      "name": "V2TooLittleReceived",
      "type": "error"
    },
    {
      "inputs": [],
      "name": "V2TooMuchRequested",
      "type": "error"
    },
    {
      "inputs": [],
      "name": "V3InvalidAmountOut",
      "type": "error"
    },
    {
      "inputs": [],
      "name": "V3InvalidCaller",
      "type": "error"
    },
    {
      "inputs": [],
      "name": "V3InvalidSwap",
      "type": "error"
    },
    {
      "inputs": [],
      "name": "V3TooLittleReceived",
      "type": "error"
    },
    {
      "inputs": [],
      "name": "V3TooMuchRequested",
      "type": "error"
    },
    {
      "anonymous": false,
      "inputs": [
        {
          "indexed": false,
          "internalType": "uint256",
          "name": "amount",
          "type": "uint256"
        }
      ],
      "name": "RewardsSent",
      "type": "event"
    },
    {
      "inputs": [
        {
          "internalType": "bytes",
          "name": "looksRareClaim",
          "type": "bytes"
        }
      ],
      "name": "collectRewards",
      "outputs": [],
      "stateMutability": "nonpayable",
      "type": "function"
    },
    {
      "inputs": [
        {
          "internalType": "bytes",
          "name": "commands",
          "type": "bytes"
        },
        {
          "internalType": "bytes[]",
          "name": "inputs",
          "type": "bytes[]"
        }
      ],
      "name": "execute",
      "outputs": [],
      "stateMutability": "payable",
      "type": "function"
    },
    {
      "inputs": [
        {
          "internalType": "bytes",
          "name": "commands",
          "type": "bytes"
        },
        {
          "internalType": "bytes[]",
          "name": "inputs",
          "type": "bytes[]"
        },
        {
          "internalType": "uint256",
          "name": "deadline",
          "type": "uint256"
        }
      ],
      "name": "execute",
      "outputs": [],
      "stateMutability": "payable",
      "type": "function"
    },
    {
      "inputs": [
        {
          "internalType": "address",
          "name": "",
          "type": "address"
        },
        {
          "internalType": "address",
          "name": "",
          "type": "address"
        },
        {
          "internalType": "uint256[]",
          "name": "",
          "type": "uint256[]"
        },
        {
          "internalType": "uint256[]",
          "name": "",
          "type": "uint256[]"
        },
        {
          "internalType": "bytes",
          "name": "",
          "type": "bytes"
        }
      ],
      "name": "onERC1155BatchReceived",
      "outputs": [
        {
          "internalType": "bytes4",
          "name": "",
          "type": "bytes4"
        }
      ],
      "stateMutability": "pure",
      "type": "function"
    },
    {
      "inputs": [
        {
          "internalType": "address",
          "name": "",
          "type": "address"
        },
        {
          "internalType": "address",
          "name": "",
          "type": "address"
        },
        {
          "internalType": "uint256",
          "name": "",
          "type": "uint256"
        },
        {
          "internalType": "uint256",
          "name": "",
          "type": "uint256"
        },
        {
          "internalType": "bytes",
          "name": "",
          "type": "bytes"
        }
      ],
      "name": "onERC1155Received",
      "outputs": [
        {
          "internalType": "bytes4",
          "name": "",
          "type": "bytes4"
        }
      ],
      "stateMutability": "pure",
      "type": "function"
    },
    {
      "inputs": [
        {
          "internalType": "address",
          "name": "",
          "type": "address"
        },
        {
          "internalType": "address",
          "name": "",
          "type": "address"
        },
        {
          "internalType": "uint256",
          "name": "",
          "type": "uint256"
        },
        {
          "internalType": "bytes",
          "name": "",
          "type": "bytes"
        }
      ],
      "name": "onERC721Received",
      "outputs": [
        {
          "internalType": "bytes4",
          "name": "",
          "type": "bytes4"
        }
      ],
      "stateMutability": "pure",
      "type": "function"
    },
    {
      "inputs": [
        {
          "internalType": "bytes4",
          "name": "interfaceId",
          "type": "bytes4"
        }
      ],
      "name": "supportsInterface",
      "outputs": [
        {
          "internalType": "bool",
          "name": "",
          "type": "bool"
        }
      ],
      "stateMutability": "pure",
      "type": "function"
    },
    {
      "inputs": [
        {
          "internalType": "int256",
          "name": "amount0Delta",
          "type": "int256"
        },
        {
          "internalType": "int256",
          "name": "amount1Delta",
          "type": "int256"
        },
        {
          "internalType": "bytes",
          "name": "data",
          "type": "bytes"
        }
      ],
      "name": "yumyumswapSwapCallback",
      "outputs": [],
      "stateMutability": "nonpayable",
      "type": "function"
    },
    {
      "stateMutability": "payable",
      "type": "receive"
    }
  ],
  "transactionHash": "0xcf50d0bb82d7ec159709e6da4d3e5b00cc7cfbbb3641deb3dee327cf291db935",
  "args": [
    [
      "0x6feb2EF9631649fE6e8B676D6c606410f2e1dbb7",
      "0x4200000000000000000000000000000000000006",
      "0xCc5b4e6756F9832e34B9e35B81638BBFB3e4cd3C",
      "0xCc5b4e6756F9832e34B9e35B81638BBFB3e4cd3C",
      "0xCc5b4e6756F9832e34B9e35B81638BBFB3e4cd3C",
      "0xCc5b4e6756F9832e34B9e35B81638BBFB3e4cd3C",
      "0xCc5b4e6756F9832e34B9e35B81638BBFB3e4cd3C",
      "0xCc5b4e6756F9832e34B9e35B81638BBFB3e4cd3C",
      "0xCc5b4e6756F9832e34B9e35B81638BBFB3e4cd3C",
      "0xCc5b4e6756F9832e34B9e35B81638BBFB3e4cd3C",
      "0xCc5b4e6756F9832e34B9e35B81638BBFB3e4cd3C",
      "0xCc5b4e6756F9832e34B9e35B81638BBFB3e4cd3C",
      "0xCc5b4e6756F9832e34B9e35B81638BBFB3e4cd3C",
      "0xCc5b4e6756F9832e34B9e35B81638BBFB3e4cd3C",
      "0xCc5b4e6756F9832e34B9e35B81638BBFB3e4cd3C",
      "0xCc5b4e6756F9832e34B9e35B81638BBFB3e4cd3C",
      "0xCc5b4e6756F9832e34B9e35B81638BBFB3e4cd3C",
      "0xf6C96aC4251905572c7083B1804825850B9BC9e6",
      "0x0000000000000000000000000000000000000000000000000000000000000000",
      "0x5f77a2e6e9e09fd14bae12229869da91c1843cfd43d8bda95b61c67b0d149373"
    ]
  ],
  "solcInputHash": "d90e58786f86006de049d2e3852a5914",
  "bytecode": "0x34620003f4576001600160401b0362004a0e38819003610300601f8201601f191681019084821190821017620003de576102809282916040526103003912620003f457604051610280810191821181831017620003de57610260916040526200006a610300620003f9565b8082526200007a610320620003f9565b60208301526200008c610340620003f9565b60408301526200009e610360620003f9565b6060830152620000b0610380620003f9565b6080830152620000c26103a0620003f9565b60a0830152620000d46103c0620003f9565b60c0830152620000e66103e0620003f9565b60e0830152620000f8610400620003f9565b6101008301526200010b610420620003f9565b6101208301526200011e610440620003f9565b61014083015262000131610460620003f9565b61016083015262000144610480620003f9565b610180830152620001576104a0620003f9565b6101a08301526200016a6104c0620003f9565b6101c08301526200017d6104e0620003f9565b6101e083015262000190610500620003f9565b610200830152620001a3610520620003f9565b610220838101918252610540516102408086019182526103008701518787019081526001600160a01b0395861660a09081526020880151871660809081526040808a0151891660c090815260608b01518a1660e0908152928b01518a16610100908152938b01518a16610120908152908b01518a16610140908152928b01518a16610160908152938b01518a16610180908152908b01518a166101a0908152928b01518a166101c0908152938b01518a166101e0908152908b01518a16610200908152908b01518a16909752918901518816909352918701518616909752919094015183166102805292516102a05251166102c05290516102e052600019600055600180546001600160a01b03191681179055516145ff6200040f823960805181818161214301526122ca015260a05181818161135d0152818161145d01528181611fbc015281816124e201526139ed015260c05181612801015260e05181613262015261010051816132c601526101205181612895015261014051818181612d7d0152612e6201526101605181612e99015261018051818181612dd001526133c801526101a0518161307801526101c05181612e2701526101e051816128d00152610200518181816128420152612a37015261022051816102990152610240518161023d0152610260518161032101526102805181818161193e01528181611d4e0152613ee101526102a05181818161191d01528181611d2d0152613ec001526102c0518161441e01526102e051816143fc01526145ff90f35b634e487b7160e01b600052604160045260246000fd5b600080fd5b51906001600160a01b0382168203620003f45756fe60a0604081815260049182361015610022575b505050361561002057600080fd5b005b600090813560e01c90816301ffc9a71461094257508063150b7a02146108b557806324856bc3146107ec5780633593564c146106b35780635f11f4c91461043e578063709a1cc2146101d6578063bc197c81146101125763f23a6e6103610012573461010f5760a07ffffffffffffffffffffffffffffffffffffffffffffffffffffffffffffffffc36011261010f576100ba610a30565b506100c3610a58565b506084359067ffffffffffffffff821161010f57506020926100e791369101610a9c565b5050517ff23a6e61000000000000000000000000000000000000000000000000000000008152f35b80fd5b503461010f5760a07ffffffffffffffffffffffffffffffffffffffffffffffffffffffffffffffffc36011261010f5761014a610a30565b50610153610a58565b5067ffffffffffffffff906044358281116101d2576101759036908601610aca565b50506064358281116101d25761018e9036908601610aca565b505060843591821161010f57506020926101aa91369101610a9c565b5050517fbc197c81000000000000000000000000000000000000000000000000000000008152f35b5080fd5b5091903461043a57602090817ffffffffffffffffffffffffffffffffffffffffffffffffffffffffffffffffc3601126104365783833567ffffffffffffffff81116101d25761022a829136908701610a9c565b90818551928392833781018381520390827f00000000000000000000000000000000000000000000000000000000000000005af161026661356b565b501561040e5780517f70a082310000000000000000000000000000000000000000000000000000000081523084820152907f000000000000000000000000000000000000000000000000000000000000000073ffffffffffffffffffffffffffffffffffffffff168383602481845afa9283156104045786936103cf575b5081517fa9059cbb00000000000000000000000000000000000000000000000000000000815273ffffffffffffffffffffffffffffffffffffffff7f0000000000000000000000000000000000000000000000000000000000000000169581019586526020860184905294849186918290899082906040015b03925af19384156103c5577f1e8f03f716bc104bf7d728131967a0c771e85ab54d09c1e2d6ed9e0bc4e2a16c94610398575b5051908152a180f35b6103b790843d86116103be575b6103af81836134f0565b81019061388f565b503861038f565b503d6103a5565b81513d87823e3d90fd5b9092508381813d83116103fd575b6103e781836134f0565b810103126103f957519161035d6102e4565b8580fd5b503d6103dd565b82513d88823e3d90fd5b9050517f7d529919000000000000000000000000000000000000000000000000000000008152fd5b8380fd5b8280fd5b5091903461043a5760607ffffffffffffffffffffffffffffffffffffffffffffffffffffffffffffffffc36011261043a57813590602435926044359067ffffffffffffffff918281116106af576104999036908301610a9c565b919092878613908115806106a5575b61067d578385018686820312610679578535918211610679576104cc918601613605565b5060208401359373ffffffffffffffffffffffffffffffffffffffff93848616809603610679576104fc9161415c565b959097602b89106106515786359260178460601c98019561052b62ffffff883560601c9660481c16868b614367565b33911603610629571561061f57508186105b15610555575050505061055293503391613ac4565b80f35b939594509192909190604287106105d957505050836017116105d5577f80000000000000000000000000000000000000000000000000000000000000008210156105d5577fffffffffffffffffffffffffffffffffffffffffffffffffffffffffffffffe96105cf9401916105ca33916141b7565b6141e4565b50505080f35b8480fd5b9196955092939150845484116105f757506105529394503391613ac4565b8590517f739dbe52000000000000000000000000000000000000000000000000000000008152fd5b965085821061053d565b8483517f32b13d91000000000000000000000000000000000000000000000000000000008152fd5b8382517f3b99b53d000000000000000000000000000000000000000000000000000000008152fd5b8980fd5b8286517f316cf0eb000000000000000000000000000000000000000000000000000000008152fd5b50888813156104a8565b8680fd5b50919060607ffffffffffffffffffffffffffffffffffffffffffffffffffffffffffffffffc36011261043a5767ffffffffffffffff82358181116105d5576106ff9036908501610a9c565b916024359081116103f9576107179036908601610aca565b92909160443542116107c4573330146107b5576001958654958773ffffffffffffffffffffffffffffffffffffffff88160361078f5750509185949391610786937fffffffffffffffffffffffff00000000000000000000000000000000000000009586339116178755610b59565b81541617905580f35b517f6f5ffb7e000000000000000000000000000000000000000000000000000000008152fd5b90919293506105529450610b59565b8585517f5bf6f916000000000000000000000000000000000000000000000000000000008152fd5b509190807ffffffffffffffffffffffffffffffffffffffffffffffffffffffffffffffffc36011261043a5767ffffffffffffffff82358181116105d5576108379036908501610a9c565b916024359081116103f95761084f9036908601610aca565b9290913330146107b5576001958654958773ffffffffffffffffffffffffffffffffffffffff88160361078f5750509185949391610786937fffffffffffffffffffffffff00000000000000000000000000000000000000009586339116178755610b59565b503461010f5760807ffffffffffffffffffffffffffffffffffffffffffffffffffffffffffffffffc36011261010f576108ed610a30565b506108f6610a58565b506064359067ffffffffffffffff821161010f575060209261091a91369101610a9c565b5050517f150b7a02000000000000000000000000000000000000000000000000000000008152f35b9050833461043a5760207ffffffffffffffffffffffffffffffffffffffffffffffffffffffffffffffffc36011261043a57357fffffffff00000000000000000000000000000000000000000000000000000000811680910361043a57602092507f4e2312e0000000000000000000000000000000000000000000000000000000008114908115610a06575b81156109dc575b5015158152f35b7f01ffc9a700000000000000000000000000000000000000000000000000000000915014836109d5565b7f150b7a0200000000000000000000000000000000000000000000000000000000811491506109ce565b6004359073ffffffffffffffffffffffffffffffffffffffff82168203610a5357565b600080fd5b6024359073ffffffffffffffffffffffffffffffffffffffff82168203610a5357565b359073ffffffffffffffffffffffffffffffffffffffff82168203610a5357565b9181601f84011215610a535782359167ffffffffffffffff8311610a535760208381860195010111610a5357565b9181601f84011215610a535782359167ffffffffffffffff8311610a53576020808501948460051b010111610a5357565b919082519283825260005b848110610b455750507fffffffffffffffffffffffffffffffffffffffffffffffffffffffffffffffe0601f8460006020809697860101520116010190565b602081830181015184830182015201610b06565b919290926080528281036134425791906000905b828210610b7a5750505050565b8382959394951015611b515760059282841b60805101357fffffffffffffffffffffffffffffffffffffffffffffffffffffffffffffffe19182608051360301821215610a53578160805101359767ffffffffffffffff8911610a53576020836080510101988036038a13610a5357606097603f90818989013560f81c16600197602082106000146130a157506010808210156127b9575060088082101561188357508061109657505050610c2f908a61419a565b92909860a08560805101013560001461108c57610c6673ffffffffffffffffffffffffffffffffffffffff600154169b5b35613856565b9960408660805101013585829d927f80000000000000000000000000000000000000000000000000000000000000008314610fd4575b50959c95505b7f8000000000000000000000000000000000000000000000000000000000000000811015610a535760428610610fcd5730915b86602b11610a53578d91601783013560601c9083359462ffffff8660601c96610d1a73ffffffffffffffffffffffffffffffffffffffff92839260481c16868a614367565b169084881015610fb157806401000276a4965b602b60405199604060208c01528160608c015260808b0137600060ab8a015216604088015260a0875260c087019587871067ffffffffffffffff881117610f82576040948288958688527f128acb080000000000000000000000000000000000000000000000000000000087521660c48a0152868a1060e48a01526101048901521661012487015260a06101448701528160007fffffffffffffffffffffffffffffffffffffffffffffffffffffffffffffff4088610df0610164820182610afb565b0301925af1928315610f76576000928394610f34575b5050610e1a9310600014610f2d57506141b7565b9a60428510610e5b57309085601711610a535760177fffffffffffffffffffffffffffffffffffffffffffffffffffffffffffffffe991019501949b610ca2565b50985098606091969597949392509160805101013511610f03575b1580610ed6575b610e8f57506001019291929092610b6d565b90610ed260409283519384937f2c4029e9000000000000000000000000000000000000000000000000000000008552600485015260248401526044830190610afb565b0390fd5b507f8000000000000000000000000000000000000000000000000000000000000000828501351615610e7d565b60046040517f39d35496000000000000000000000000000000000000000000000000000000008152fd5b90506141b7565b91929093506040843d604011610f6e575b81610f52604093866134f0565b8101031261010f57505160e092909201519190610e1a38610e06565b3d9150610f45565b6040513d6000823e3d90fd5b7f4e487b7100000000000000000000000000000000000000000000000000000000600052604160045260246000fd5b8073fffd8963efd1fc6a506488495d951d5263988d2596610d2d565b8b91610cd5565b601491925010611062576020602491604051928380927f70a082310000000000000000000000000000000000000000000000000000000082523060048301523560601c5afa908115610f7657600091611030575b503880610c9c565b906020823d60201161105a575b8161104a602093836134f0565b8101031261010f57505138611028565b3d915061103d565b60046040517f3b99b53d000000000000000000000000000000000000000000000000000000008152fd5b610c66309b610c60565b6001819d969d9b989794959a999b146000146111bc575050506040926110c48483608051010135938261419a565b608051840160a00135156111b05760606110f773ffffffffffffffffffffffffffffffffffffffff600154169435613856565b946080510101356000557f8000000000000000000000000000000000000000000000000000000000000000851015610a5357611136936105ca866141b7565b909190156111a15750611148906141b7565b0361117857507fffffffffffffffffffffffffffffffffffffffffffffffffffffffffffffffff6000555b610e76565b600490517fd4e0248e000000000000000000000000000000000000000000000000000000008152fd5b6111ab91506141b7565b611148565b60606110f73094610c60565b91949293916002810361120b57505050611173925073ffffffffffffffffffffffffffffffffffffffff60015416611204604060608560805101013594608051010135613856565b91356139d2565b9193916003810361157d57505060805181018084019390604090850312610a5357823567ffffffffffffffff8111610a535782608051010192606084860312610a5357604051946060860186811067ffffffffffffffff821117610f8257604052602085013567ffffffffffffffff8111610a5357850160208201809882011215610a535760208101359061129f826135da565b926112ad60405194856134f0565b8284526040602085019360071b830101918a8311610a5357604001925b828410611518575050505085526112e360408501610a7b565b956020860196875260606040870195013585526040846080510101359067ffffffffffffffff8211610a535760206113249261132a96608051010101613605565b5061417d565b909173ffffffffffffffffffffffffffffffffffffffff600154169473ffffffffffffffffffffffffffffffffffffffff7f0000000000000000000000000000000000000000000000000000000000000000163b15610a535794929391906040519586947f2a2d80d100000000000000000000000000000000000000000000000000000000865260048601526060602486015260c48501935193606060648701528451809152602060e487019501906000905b80821061149f57505050946114439285949273ffffffffffffffffffffffffffffffffffffffff600098511660848701525160a48601527ffffffffffffffffffffffffffffffffffffffffffffffffffffffffffffffffc85840301604486015261359b565b03818373ffffffffffffffffffffffffffffffffffffffff7f0000000000000000000000000000000000000000000000000000000000000000165af18015610f7657611490575b50610e76565b6114999061346c565b3861148a565b9197965091929394602060806001928a5173ffffffffffffffffffffffffffffffffffffffff815116825273ffffffffffffffffffffffffffffffffffffffff848201511684830152606065ffffffffffff918260408201511660408501520151166060820152019801920188969795949392916113dd565b608060208584030112610a5357602060809160405161153681613480565b61153f87610a7b565b815261154c838801610a7b565b8382015261155c604088016135f2565b604082015261156d606088016135f2565b60608201528152019301926112ca565b600495509193508482036116ec5750509091604060606115a38286608051010135613856565b608051909501013573ffffffffffffffffffffffffffffffffffffffff908116933516806116195750479283106115f3575050806115e3575b5050610e76565b6115ec916144d3565b38806115dc565b517f6a12f104000000000000000000000000000000000000000000000000000000008152fd5b9391908051937f70a082310000000000000000000000000000000000000000000000000000000085523083860152602085602481895afa9485156116e1576000956116ad575b50841061168757505081611676575b505050610e76565b61167f92614541565b38808061166e565b517f675cae38000000000000000000000000000000000000000000000000000000008152fd5b90946020823d6020116116d9575b816116c8602093836134f0565b8101031261010f575051933861165f565b3d91506116bb565b82513d6000823e3d90fd5b810361171957506111739250611712604060608460805101013593608051010135613856565b90356138a7565b9091906006810361185357506080510160608101359060409061173e90820135613856565b9282158015611848575b611820573573ffffffffffffffffffffffffffffffffffffffff169384611784575050611173925061177d6127109147613986565b04906144d3565b8151907f70a082310000000000000000000000000000000000000000000000000000000082523090820152602081602481885afa91821561181657506000916117e2575b506117db61117394939261271092613986565b0491614541565b906020823d60201161180e575b816117fc602093836134f0565b8101031261010f5750516117db6117c8565b3d91506117ef565b513d6000823e3d90fd5b8482517fdeaa01e6000000000000000000000000000000000000000000000000000000008152fd5b506127108311611748565b83602491604051917fd76a1e9e000000000000000000000000000000000000000000000000000000008352820152fd5b819d969d9b989794959a999b93929314600014611b8a575050506040916118b28383608051010135918561419a565b92909460a082608051010135600014611b80576118e873ffffffffffffffffffffffffffffffffffffffff600154169135613856565b908615611b51576118f885613a96565b8760011015611b515761191a6119629161191460208901613a96565b90613c36565b907f00000000000000000000000000000000000000000000000000000000000000007f0000000000000000000000000000000000000000000000000000000000000000613b2e565b938481611b37575b5050507fffffffffffffffffffffffffffffffffffffffffffffffffffffffffffffffff860193868511611b08576119be946119c373ffffffffffffffffffffffffffffffffffffffff9687928a85613a86565b613a96565b16948651947f70a082310000000000000000000000000000000000000000000000000000000091828752841693600499858b89015260249460208987818d5afa988915611afd57600099611ac8575b509160209695949391611a2493613caf565b8751968793849283528a8301525afa928315611abd57600093611a88575b50906060611a569260805101013592613ab7565b10611a62575050610e76565b517f849eaf98000000000000000000000000000000000000000000000000000000008152fd5b90926020823d602011611ab5575b81611aa3602093836134f0565b8101031261010f575051916060611a42565b3d9150611a96565b84513d6000823e3d90fd5b90986020823d602011611af5575b81611ae3602093836134f0565b8101031261010f575051976020611a12565b3d9150611ad6565b8b513d6000823e3d90fd5b7f4e487b7100000000000000000000000000000000000000000000000000000000600052601160045260246000fd5b611b4992611b4488613a96565b613ac4565b38808461196a565b7f4e487b7100000000000000000000000000000000000000000000000000000000600052603260045260246000fd5b6118e83091610c60565b919492939160098103611f6b575050611ba3908261419a565b608051840160a0013515611f6157611bd473ffffffffffffffffffffffffffffffffffffffff600154169335613856565b92611bde836135da565b95611bec60405197886134f0565b83875283901b820160208701368211610a535783905b828210611f49575050506000946002875110611f1f576040816080510101359680517fffffffffffffffffffffffffffffffffffffffffffffffffffffffffffffffff8101908111611b085790815b611cac57505060805101606001358611611c82578215611b51576111739585611c7d92611b4485613a96565b613caf565b60046040517f8ab0bc16000000000000000000000000000000000000000000000000000000008152fd5b90977fffffffffffffffffffffffffffffffffffffffffffffffffffffffffffffffff89019750888811611b085773ffffffffffffffffffffffffffffffffffffffff611cfc611d729984613a72565b5116611d2873ffffffffffffffffffffffffffffffffffffffff611d208c86613a72565b511682613c36565b819a917f00000000000000000000000000000000000000000000000000000000000000007f0000000000000000000000000000000000000000000000000000000000000000613b2e565b90604051907f0902f1ac00000000000000000000000000000000000000000000000000000000825260608260048173ffffffffffffffffffffffffffffffffffffffff87165afa9a8b15610f7657600092839c611ed6575b5073ffffffffffffffffffffffffffffffffffffffff1603611ebc576dffffffffffffffffffffffffffff8091169916905b9880158015611eb4575b611e8a5782611e1491613986565b916103e892838102938185041490151715611b0857611e3291613ab7565b6103e590818102918183041490151715611b0857611e4f91613999565b60018101809111611b0857978015611b08577fffffffffffffffffffffffffffffffffffffffffffffffffffffffffffffffff019081611c51565b60046040517f7b9c8916000000000000000000000000000000000000000000000000000000008152fd5b508115611e06565b6dffffffffffffffffffffffffffff998a16991690611dfc565b611f0f919c5073ffffffffffffffffffffffffffffffffffffffff935060603d8111611f18575b611f0781836134f0565b810190613c79565b509b9092611dca565b503d611efd565b60046040517f20db8267000000000000000000000000000000000000000000000000000000008152fd5b60208091611f5684610a7b565b815201910190611c02565b611bd43093610c60565b92945091600a81036120d15750608051830160e08101358101946020808701359450909291611f9e91908703018461414f565b116110625773ffffffffffffffffffffffffffffffffffffffff93847f00000000000000000000000000000000000000000000000000000000000000001692856001541691843b15610a535760409587875198899687967f2b67b570000000000000000000000000000000000000000000000000000000008852600488015261202690610a7b565b166024860152808883608051010161203d90610a7b565b16604486015265ffffffffffff80836080510160600161205c906135f2565b1660648701528260805101608001612073906135f2565b166084860152816080510160a00161208a90610a7b565b1660a48501526080510160c0013560c484015261010060e48401526120b691610104840191870161359b565b03815a6000948591f190811561181657506114905750610e76565b600b810361229b575050506120f0604080926080510101359235613856565b91807f8000000000000000000000000000000000000000000000000000000000000000810361226b575050475b8061212a57505050610e76565b73ffffffffffffffffffffffffffffffffffffffff90817f000000000000000000000000000000000000000000000000000000000000000016803b15610a53578351927fd0e30db0000000000000000000000000000000000000000000000000000000008452600493600081868187875af1801561226057612251575b5030908616036121b9575b505061166e565b6122189460006020948651978895869485937fa9059cbb00000000000000000000000000000000000000000000000000000000855284016020909392919373ffffffffffffffffffffffffffffffffffffffff60408201951681520152565b03925af19081156118165750612232575b808080806121b2565b61224a9060203d6020116103be576103af81836134f0565b5038612229565b61225a9061346c565b386121a7565b86513d6000823e3d90fd5b47101561211d57600482517f6a12f104000000000000000000000000000000000000000000000000000000008152fd5b600c810361242b57505050906122b19035613856565b9073ffffffffffffffffffffffffffffffffffffffff807f00000000000000000000000000000000000000000000000000000000000000001660408051937f70a08231000000000000000000000000000000000000000000000000000000008552600430818701526024916020878481885afa968715611abd576000976123f7575b506080510183013586106123d05785612353575b50505050505050610e76565b833b15610a5357600091869183855196879485937f2e1a7d4d0000000000000000000000000000000000000000000000000000000085528401525af190811561181657506123c1575b5030908316036123b1575b8080808080612347565b6123ba916144d3565b38806123a7565b6123ca9061346c565b3861239c565b82517f6a12f104000000000000000000000000000000000000000000000000000000008152fd5b90966020823d602011612423575b81612412602093836134f0565b8101031261010f5750519583612333565b3d9150612405565b600d8103612686575082608051010191602083019360208260805101850312610a53573567ffffffffffffffff8111610a5357849160805101019182011215610a535760208101359061247d826135da565b9360409361248d855196876134f0565b838652602086019285849560071b820101928311610a53578501925b828410612624575050505073ffffffffffffffffffffffffffffffffffffffff90816001541684519060005b8281106125b857505050817f00000000000000000000000000000000000000000000000000000000000000001691823b15610a535783517f0d58b1db000000000000000000000000000000000000000000000000000000008152602060048201529451602486018190528592604484019290916000915b81831061257457505050509181600081819503925af190811561181657506114905750610e76565b91938395506080602091846060600195975182815116845282868201511686850152828d820151168d8501520151166060820152019501930190918794939261254c565b81856125c4838a613a72565b515116036125fb577fffffffffffffffffffffffffffffffffffffffffffffffffffffffffffffffff8114611b08576001016124d5565b600486517fe7002877000000000000000000000000000000000000000000000000000000008152fd5b608060208584030112610a53576020608091875161264181613480565b61264a87610a7b565b8152612657838801610a7b565b83820152612666898801610a7b565b8982015261267660608801610a7b565b60608201528152019301926124a9565b9294505050600e810361278857506040918251907f70a0823100000000000000000000000000000000000000000000000000000000825260208260248173ffffffffffffffffffffffffffffffffffffffff806004983516888301528886608051010135165afa918215611abd57600092612753575b5060805101606001351180159290612715575050610e76565b517fa328167200000000000000000000000000000000000000000000000000000000602082015290815290915061274b816134b8565b9038806115dc565b90916020823d602011612780575b8161276e602093836134f0565b8101031261010f5750519060606126fc565b3d9150612761565b602490604051907fd76a1e9e0000000000000000000000000000000000000000000000000000000082526004820152fd5b9150915060189b959692949b9993989799808310600014612d66575081036128305750505060009250906127ee83928261417d565b81604051928392833781018481520391357f00000000000000000000000000000000000000000000000000000000000000005af161282a61356b565b90610e76565b601181036128675750505061282a92507f00000000000000000000000000000000000000000000000000000000000000009161364c565b601281036128be57505050600092509061288283928261417d565b81604051928392833781018481520391357f00000000000000000000000000000000000000000000000000000000000000005af161282a61356b565b91929160138103612a215750505050357f0000000000000000000000000000000000000000000000000000000000000000916040600080825160208101907f8264fe98000000000000000000000000000000000000000000000000000000008252602487818301528152612931816134d4565b5190606086608051010135885af19261294861356b565b9484156129e7578273ffffffffffffffffffffffffffffffffffffffff612976921694608051010135613856565b90833b15610a535782517f8b72a2ec00000000000000000000000000000000000000000000000000000000815273ffffffffffffffffffffffffffffffffffffffff9290921660048301526024820152916000908390604490829084905af190811561181657506114905750610e76565b505091925050517fae9bdf000000000000000000000000000000000000000000000000000000000060208201526004815261282a816134b8565b9294919260148103612a5c5750505061282a92507f00000000000000000000000000000000000000000000000000000000000000009161378b565b919392509060158103612b7257505090604091828051917f6352211e0000000000000000000000000000000000000000000000000000000083526020836024816004976060816080510101358983015273ffffffffffffffffffffffffffffffffffffffff968791608051010135165afa928315612b6757600093612b28575b5081903516911614918215612af2575050610e76565b517f7dbe7e8900000000000000000000000000000000000000000000000000000000602082015290815290915061274b816134b8565b6020939193813d602011612b5f575b81612b44602093836134f0565b810103126101d2575190828216820361010f57509181612adc565b3d9150612b37565b85513d6000823e3d90fd5b60168103612c995750506040918251907efdd58e00000000000000000000000000000000000000000000000000000000825260208280612be460049660608660805101013590358884016020909392919373ffffffffffffffffffffffffffffffffffffffff60408201951681520152565b038173ffffffffffffffffffffffffffffffffffffffff8886608051010135165afa918215611abd57600092612c64575b5060809081510101351191821592612c2e575050610e76565b517f483a692900000000000000000000000000000000000000000000000000000000602082015290815290915061274b816134b8565b90916020823d602011612c91575b81612c7f602093836134f0565b8101031261010f575051906080612c15565b3d9150612c72565b909290601714612caa575050610e76565b60409073ffffffffffffffffffffffffffffffffffffffff612cd28383608051010135613856565b93351692833b15610a535782517f42842e0e00000000000000000000000000000000000000000000000000000000815260805130600483015273ffffffffffffffffffffffffffffffffffffffff909216602482015291016060013560448201529160009083908183816064810103925af19081156118165750612d57575b806115dc565b612d609061346c565b38612d51565b939692938214159050612da25750505061282a92507f00000000000000000000000000000000000000000000000000000000000000009161364c565b60198103612df9575050506000925090612dbd83928261417d565b81604051928392833781018481520391357f00000000000000000000000000000000000000000000000000000000000000005af161282a61356b565b601a8103612e50575050506000925090612e1483928261417d565b81604051928392833781018481520391357f00000000000000000000000000000000000000000000000000000000000000005af161282a61356b565b601b8103612e875750505061282a92507f00000000000000000000000000000000000000000000000000000000000000009161378b565b601c8103612ebe5750505061282a92507f00000000000000000000000000000000000000000000000000000000000000009161364c565b9193929091601d81036130475750506060816080510101359060409173ffffffffffffffffffffffffffffffffffffffff612eff8484608051010135613856565b9435168351947efdd58e00000000000000000000000000000000000000000000000000000000865260049360208780612f5e87308a84016020909392919373ffffffffffffffffffffffffffffffffffffffff60408201951681520152565b0381865afa96871561226057600097613012575b5060809081510101358610612fea578451612f8c8161349c565b60008152823b15610a5357600094612fd486928851998a97889687957ff242432a00000000000000000000000000000000000000000000000000000000875230908701613746565b03925af190811561181657506114905750610e76565b8385517f675cae38000000000000000000000000000000000000000000000000000000008152fd5b90966020823d60201161303f575b8161302d602093836134f0565b8101031261010f575051956080612f72565b3d9150613020565b929450925050601e810361278857508161306560009392849361417d565b81604051928392833781018481520391357f00000000000000000000000000000000000000000000000000000000000000005af161282a61356b565b9499989a939792506020819d9792969d146000146132255750505050906130d36130cb858561415c565b95909461417d565b91909261311660409687519660208801987f24856bc3000000000000000000000000000000000000000000000000000000008a526024890152606488019161359b565b937fffffffffffffffffffffffffffffffffffffffffffffffffffffffffffffffdc868603016044870152808552602081818701941b86010194846000935b8385106131a85750505050505050918161319a600094938594037fffffffffffffffffffffffffffffffffffffffffffffffffffffffffffffffe081018352826134f0565b519082305af161282a61356b565b909192939495967fffffffffffffffffffffffffffffffffffffffffffffffffffffffffffffffe084820301875287358284360301811215610a53578301906020823592019167ffffffffffffffff8111610a53578036038313610a5357613216602092839260019561359b565b99019701950193929190613155565b91935091935060219594959081811460001461328b5750505050508161324f60009392849361417d565b81604051928392833781018481520391357f00000000000000000000000000000000000000000000000000000000000000005af161282a61356b565b9395929450909260228103612788575060408093608051010135906000906002831015613416575050808491156000146133be5750506000907f0000000000000000000000000000000000000000000000000000000000000000925b6020838251937f095ea7b3000000000000000000000000000000000000000000000000000000008552600496878601526024947fffffffffffffffffffffffffffffffffffffffffffffffffffffffffffffffff868201526044968792355af13d15601f3d118760005114161716156133635750505050610e76565b91600e7f415050524f56455f4641494c45440000000000000000000000000000000000009260206064969551957f08c379a0000000000000000000000000000000000000000000000000000000008752860152840152820152fd5b036133ed576000907f0000000000000000000000000000000000000000000000000000000000000000926132e7565b600482517f5461585f000000000000000000000000000000000000000000000000000000008152fd5b602492507f4e487b71000000000000000000000000000000000000000000000000000000008252600452fd5b60046040517fff633a38000000000000000000000000000000000000000000000000000000008152fd5b67ffffffffffffffff8111610f8257604052565b6080810190811067ffffffffffffffff821117610f8257604052565b6020810190811067ffffffffffffffff821117610f8257604052565b6040810190811067ffffffffffffffff821117610f8257604052565b6060810190811067ffffffffffffffff821117610f8257604052565b90601f7fffffffffffffffffffffffffffffffffffffffffffffffffffffffffffffffe0910116810190811067ffffffffffffffff821117610f8257604052565b67ffffffffffffffff8111610f8257601f017fffffffffffffffffffffffffffffffffffffffffffffffffffffffffffffffe01660200190565b3d15613596573d9061357c82613531565b9161358a60405193846134f0565b82523d6000602084013e565b606090565b601f82602094937fffffffffffffffffffffffffffffffffffffffffffffffffffffffffffffffe0938186528686013760008582860101520116010190565b67ffffffffffffffff8111610f825760051b60200190565b359065ffffffffffff82168203610a5357565b81601f82011215610a535780359061361c82613531565b9261362a60405194856134f0565b82845260208383010111610a5357816000926020809301838601378301015290565b919290613659908361417d565b90938460405195869384378201906000958693838580955203918635905af19261368161356b565b928461368b575050565b73ffffffffffffffffffffffffffffffffffffffff6060820135166136b36040830135613856565b91813b15610436576040517f42842e0e00000000000000000000000000000000000000000000000000000000815230600482015273ffffffffffffffffffffffffffffffffffffffff909316602484015260800135604483015290919081908390818381606481015b03925af190811561373a575061372f5750565b6137389061346c565b565b604051903d90823e3d90fd5b919261378895949160a09473ffffffffffffffffffffffffffffffffffffffff8092168552166020840152604083015260608201528160808201520190610afb565b90565b919290613798908361417d565b90938460405195869384378201906000958693838580955203918635905af1926137c061356b565b92846137ca575050565b73ffffffffffffffffffffffffffffffffffffffff6060820135166137f26040830135613856565b91604051926138008461349c565b848452823b156105d557918493918461371c9694604051978895869485937ff242432a000000000000000000000000000000000000000000000000000000008552608060a0830135920135903060048701613746565b73ffffffffffffffffffffffffffffffffffffffff90808216600181036138805750506001541690565b90915060020361378857503090565b90816020910312610a5357518015158103610a535790565b9092919073ffffffffffffffffffffffffffffffffffffffff16806138d1575061373891926144d3565b7f80000000000000000000000000000000000000000000000000000000000000008214613904575b926137389293614541565b9050604051927f70a08231000000000000000000000000000000000000000000000000000000008452306004850152602084602481855afa938415610f7657600094613953575b5092906138f9565b6020813d821161397e575b8161396b602093836134f0565b810103126105d55751935061373861394b565b3d915061395e565b81810292918115918404141715611b0857565b81156139a3570490565b7f4e487b7100000000000000000000000000000000000000000000000000000000600052601260045260246000fd5b919273ffffffffffffffffffffffffffffffffffffffff91827f00000000000000000000000000000000000000000000000000000000000000001693843b15610a535760009484869281608496816040519b8c9a8b997f36c78516000000000000000000000000000000000000000000000000000000008b521660048a01521660248801521660448601521660648401525af18015610f765761372f5750565b8051821015611b515760209160051b010190565b9190811015611b515760051b0190565b3573ffffffffffffffffffffffffffffffffffffffff81168103610a535790565b91908203918211611b0857565b92919073ffffffffffffffffffffffffffffffffffffffff8082163003613af0575050613738926138a7565b8084959411613b04576137389416926139d2565b60046040517fc4bd89a9000000000000000000000000000000000000000000000000000000008152fd5b9173ffffffffffffffffffffffffffffffffffffffff93613c2f916040519060208201927fffffffffffffffffffffffffffffffffffffffff000000000000000000000000809260601b16845260601b16603482015260288152613b91816134d4565b519020613c03604051938492602084019687917fffffffffffffffffffffffffffffffffffffffff000000000000000000000000605594927fff00000000000000000000000000000000000000000000000000000000000000855260601b166001840152601583015260358201520190565b037fffffffffffffffffffffffffffffffffffffffffffffffffffffffffffffffe081018352826134f0565b5190201690565b73ffffffffffffffffffffffffffffffffffffffff8281169082161015613c5a5791565b9091565b51906dffffffffffffffffffffffffffff82168203610a5357565b90816060910312610a5357613c8d81613c5e565b916040613c9c60208401613c5e565b92015163ffffffff81168103610a535790565b9260028210614125578115611b5157613cc784613a96565b9160019481861015611b515791613ce5602094611914868601613a96565b50926000935b7fffffffffffffffffffffffffffffffffffffffffffffffffffffffffffffffff84018510613d1e575050505050505050565b613d2c6119be868685613a86565b92613d3d6119be8a88018786613a86565b936040908151957f0902f1ac00000000000000000000000000000000000000000000000000000000875273ffffffffffffffffffffffffffffffffffffffff80941694606092600493808a86818b5afa998a1561226057908d9594939291600091829c6140ff575b50508780916dffffffffffffffffffffffffffff8091169c16921692168214998a6000146140f9575b8651958680947f70a082310000000000000000000000000000000000000000000000000000000082528b8883015260249889915afa9283156140ee578e6000946140bd575b5050808303918115938480156140b5575b61408d57826103e5808602958604149114171561406057613e459083613986565b926103e880830292830414171561403357613e6a9291613e649161414f565b90613999565b971561402b57600097905b898b7ffffffffffffffffffffffffffffffffffffffffffffffffffffffffffffffffe820181101561401f57916119146119be613ebb936002613f059c9601908d613a86565b8198917f00000000000000000000000000000000000000000000000000000000000000007f0000000000000000000000000000000000000000000000000000000000000000613b2e565b965b988551918d83019367ffffffffffffffff9484811086821117613ff257885260008452813b15610a535760008a93613f8582968b519c8d97889687957f022c0d9f0000000000000000000000000000000000000000000000000000000087528d8701528d860152166044840152608060648401526084830190610afb565b03925af18015611abd57908d969594939291613faa575b505050505094019391613ceb565b909192938095965011613fc65750505287903880808080613f9c565b6041907f4e487b7100000000000000000000000000000000000000000000000000000000600052526000fd5b876041887f4e487b7100000000000000000000000000000000000000000000000000000000600052526000fd5b5050508b956000613f07565b600090613e75565b856011867f4e487b7100000000000000000000000000000000000000000000000000000000600052526000fd5b866011877f4e487b7100000000000000000000000000000000000000000000000000000000600052526000fd5b8689517f7b9c8916000000000000000000000000000000000000000000000000000000008152fd5b508115613e24565b8181959293953d83116140e7575b6140d581836134f0565b8101031261010f57505191388e613e13565b503d6140cb565b87513d6000823e3d90fd5b90613dce565b899c50899250908161411c92903d10611f1857611f0781836134f0565b509b9091613da5565b60046040517fae52ad0c000000000000000000000000000000000000000000000000000000008152fd5b91908201809211611b0857565b91823583019161417660208435958186019503018561414f565b1161106257565b91602083013583019161417660208435958186019503018561414f565b91606083013583019161417660208435958186019503018561414f565b7f80000000000000000000000000000000000000000000000000000000000000008114611b085760000390565b939193602b8410611062578462ffffff6000614269946142f061429b9935988960601c9a8b9a61423d601789013560601c9d8e109c73ffffffffffffffffffffffffffffffffffffffff9e8f998a9460481c1691614367565b16968b861461434c576401000276a49a5b60409d8e9b8c9384519687956020870152606086019161359b565b91168b830152037fffffffffffffffffffffffffffffffffffffffffffffffffffffffffffffffe081018352826134f0565b848851998a98899788967f128acb080000000000000000000000000000000000000000000000000000000088521660048701528c6024870152604486015216606484015260a0608484015260a4830190610afb565b03925af190811561434157600093849261430b575b50509192565b9080949250813d831161433a575b61432381836134f0565b8101031261010f5750602082519201513880614305565b503d614319565b83513d6000823e3d90fd5b73fffd8963efd1fc6a506488495d951d5263988d259a61424e565b73ffffffffffffffffffffffffffffffffffffffff92838316848316116144cb575b62ffffff90846040519481602087019516855216604085015216606083015260608252608082019082821067ffffffffffffffff831117610f82577fffffffffffffffffffffffffffffffffffffffffffffffffffffffffffffff80613c2f9183604052845190209361449e60a08201957f0000000000000000000000000000000000000000000000000000000000000000907f000000000000000000000000000000000000000000000000000000000000000088917fffffffffffffffffffffffffffffffffffffffff000000000000000000000000605594927fff00000000000000000000000000000000000000000000000000000000000000855260601b166001840152601583015260358201520190565b037fffffffffffffffffffffffffffffffffffffffffffffffffffffffffffffff608101845201826134f0565b909190614389565b600080809381935af1156144e357565b60646040517f08c379a000000000000000000000000000000000000000000000000000000000815260206004820152601360248201527f4554485f5452414e534645525f4641494c4544000000000000000000000000006044820152fd5b60009182604492602095604051937fa9059cbb000000000000000000000000000000000000000000000000000000008552600485015260248401525af13d15601f3d116001600051141617161561459457565b60646040517f08c379a000000000000000000000000000000000000000000000000000000000815260206004820152600f60248201527f5452414e534645525f4641494c454400000000000000000000000000000000006044820152fdfea164736f6c6343000811000a",
  "devdoc": {
    "kind": "dev",
    "methods": {
      "collectRewards(bytes)": {
        "params": {
          "looksRareClaim": "The data required by LooksRare to claim reward tokens"
        }
      },
      "execute(bytes,bytes[])": {
        "params": {
          "commands": "A set of concatenated commands, each 1 byte in length",
          "inputs": "An array of byte strings containing abi encoded inputs for each command"
        }
      },
      "execute(bytes,bytes[],uint256)": {
        "params": {
          "commands": "A set of concatenated commands, each 1 byte in length",
          "deadline": "The deadline by which the transaction must be executed",
          "inputs": "An array of byte strings containing abi encoded inputs for each command"
        }
      },
      "supportsInterface(bytes4)": {
        "details": "Returns true if this contract implements the interface defined by `interfaceId`. See the corresponding https://eips.ethereum.org/EIPS/eip-165#how-interfaces-are-identified[EIP section] to learn more about how these ids are created. This function call must use less than 30 000 gas."
      },
      "yumyumswapSwapCallback(int256,int256,bytes)": {
        "details": "In the implementation you must pay the pool tokens owed for the swap. The caller of this method must be checked to be a YumyumSwapPool deployed by the canonical YumyumSwapFactory. amount0Delta and amount1Delta can both be 0 if no tokens were swapped.",
        "params": {
          "amount0Delta": "The amount of token0 that was sent (negative) or must be received (positive) by the pool by the end of the swap. If positive, the callback must send that amount of token0 to the pool.",
          "amount1Delta": "The amount of token1 that was sent (negative) or must be received (positive) by the pool by the end of the swap. If positive, the callback must send that amount of token1 to the pool.",
          "data": "Any data passed through by the caller via the IYumyumSwapPoolActions#swap call"
        }
      }
    },
    "version": 1
  },
  "userdoc": {
    "errors": {
      "ETHNotAccepted()": [
        {
          "notice": "Thrown when attempting to send ETH directly to the contract"
        }
      ],
      "ExecutionFailed(uint256,bytes)": [
        {
          "notice": "Thrown when a required command has failed"
        }
      ],
      "LengthMismatch()": [
        {
          "notice": "Thrown when attempting to execute commands and an incorrect number of inputs are provided"
        }
      ],
      "TransactionDeadlinePassed()": [
        {
          "notice": "Thrown when executing commands with an expired deadline"
        }
      ],
      "UnsafeCast()": [
        {
          "notice": "Thrown when a valude greater than type(uint160).max is cast to uint160"
        }
      ]
    },
    "kind": "user",
    "methods": {
      "collectRewards(bytes)": {
        "notice": "Fetches users' LooksRare rewards and sends them to the distributor contract"
      },
      "execute(bytes,bytes[])": {
        "notice": "Executes encoded commands along with provided inputs."
      },
      "execute(bytes,bytes[],uint256)": {
        "notice": "Executes encoded commands along with provided inputs. Reverts if deadline has expired."
      },
      "yumyumswapSwapCallback(int256,int256,bytes)": {
        "notice": "Called to `msg.sender` after executing a swap via IYumyumSwapPool#swap."
      }
    },
    "version": 1
  },
  "storageLayout": {
    "storage": [
      {
        "astId": 4687,
        "contract": "contracts/UniversalRouter.sol:UniversalRouter",
        "label": "maxAmountInCached",
        "offset": 0,
        "slot": "0",
        "type": "t_uint256"
      },
      {
        "astId": 2434,
        "contract": "contracts/UniversalRouter.sol:UniversalRouter",
        "label": "lockedBy",
        "offset": 0,
        "slot": "1",
        "type": "t_address"
      }
    ],
    "types": {
      "t_address": {
        "encoding": "inplace",
        "label": "address",
        "numberOfBytes": "20"
      },
      "t_uint256": {
        "encoding": "inplace",
        "label": "uint256",
        "numberOfBytes": "32"
      }
    }
  }
}